:020000041000EA
:1000000000B5324B212058609868022188439860DF
:10001000D860186158612E4B002199600221596106
:100020000121F02299502B49196001219960352056
:1000300000F044F80222904214D00621196600F024
:1000400034F8196E01211966002018661A6600F04E
:100050002CF8196E196E196E052000F02FF8012189
:100060000842F9D1002199601B49196000215960AB
:100070001A491B48016001219960EB211966A021F2
:10008000196600F012F800219960164914480160C1
:100090000121996001BC002800D000471248134993
:1000A000086003C880F30888084703B5996A0420EC
:1000B0000142FBD001200142F8D103BD02B5186610
:1000C0001866FFF7F2FF186E186E02BD00000240BE
:1000D000000000180000070000035F00212200005C
:1000E000F4000018222000A00001001008ED00E03C
:1000F00000000000000000000000000074B24E7A12
:1001000000200420F7010010CB010010CD010010E9
:10011000C9010010C9010010C9010010C901001077
:10012000C9010010C9010010C9010010CF01001061
:10013000C9010010C9010010D1010010D301001045
:10014000C1010010C1010010C1010010C101001067
:10015000C1010010C1010010C1010010C101001057
:10016000C1010010C1010010C1010010C101001047
:10017000C1010010C1010010C1010010C101001037
:10018000C1010010C1010010C1010010C101001027
:10019000C1010010C1010010C1010010C101001017
:1001A000C1010010C1010010C1010010C101001007
:1001B000C1010010C1010010C1010010C1010010F7
:1001C000EFF30580103800BE00BE00BE00BE00BECA
:1001D00000BE00BEF2EB8871E00A0510080B0510A6
:1001E0003802001090A31AE71E481F49086006C88D
:1001F00081F3088810471D480068002801D019487D
:10020000F3E70DA40ECC002902D000F012F8F9E7B4
:100210001749184A002000E001C19142FCD116495B
:100220008847164988471649884700BEFDE701C937
:1002300001C29A42FBD37047080B0510E000002072
:100240007007002098110510000004200000042011
:100250009811051000100420001004200000000078
:10026000704700000000000008ED00E0000000D032
:100270007007002074CA0020B13A0010210300105A
:10028000A93A0010F8B5C0460448054B10B58342A2
:1002900003D0044B002B00D0984710BD70070020FE
:1002A000700700200000000006480749091A8B105B
:1002B000C90FC91810B5491003D0044B002B00D04A
:1002C000984710BD70070020700700200000000054
:1002D00010B5074C2378002B09D1FFF7D5FF054B4C
:1002E000002B02D0044800E000BF0123237010BDA2
:1002F000400A002000000000DC720110054B10B520
:10030000002B03D00449054800E000BFFFF7CCFFF5
:1003100010BDC04600000000440A0020DC7201103D
:1003200010B582B003F006FD184803F055FD0FF03C
:100330007FFD002826D1164803F04EFD0FF016FD74
:10034000144B154A154916480FF01EFD041E13D113
:10035000144803F041FD022301A920000B8015F091
:10036000E5FF114803F038FD01200021404216F05E
:1003700067F800F01FF8F7E70C4803F02DFD0120A7
:1003800002B010BD0A4803F027FDF8E7E072011043
:100390001C73011030750000040040003C73011014
:1003A0004873011078730110987301105C73011089
:1003B000087301107047C04610B54024084A8300F6
:1003C0009A181268C0005440C0222240054CA4462E
:1003D00063441A60044B9C466044416010BDC046B3
:1003E00004C0014004D00140004001400B4B80009C
:1003F0009C46604400290ED100230431002A00D11C
:100400001900802203685201594094460C2360442D
:100410000B40036070470C210823EFE704C0014044
:100420008000002905D0064B9C46022360440360EF
:100430007047044B9C46022360440360F8E7C046C3
:1004400004E0014004F00140D0231B061B6830B5D6
:100450000500581E834110485C4284460720302323
:10046000284023408000EC08814020000B4D3C30A8
:1004700063448000A40041511B19002A05D080224A
:10048000920194466344196030BDC02292019446A3
:1004900063441960F8E7C046004101400040014054
:1004A000D023F0B5C64604001B0698461B680C4FC7
:1004B0009B00F8580D00160000B5044209D1044312
:1004C00032002900FC500D2000F076F980BCB846BF
:1004D000F0BD01F0C3FA43461B689B00F858EEE7F5
:1004E000F4C8002010B504000D2000F059FAD02304
:1004F0001B061B6802499B005A58A2435A5010BD64
:10050000F4C800200123D0228340402112069362C8
:100510009361094A83009A181268C0005140C022B2
:100520000A4006498C4663441A60054B9C460523E5
:10053000604443607047C04604C0014004D001409D
:10054000004001400FB400B5084883B003F044FCFC
:10055000049B002B07D005A91800019103F08AFA2B
:10056000034803F039FC012003F09CFAC07301102A
:100570004C070510EFF3108072B6034A1368002B86
:10058000FCD0BFF35F8F70472C0100D0BFF35F8FAB
:100590000022024B1A6080F3108870472C0100D0B3
:1005A00070B5EFF3108C72B60D4D2B68002BFCD09C
:1005B000BFF35F8F0724CB08C618C05C01230C4033
:1005C000A3401C000440034207D103433370BFF330
:1005D0005F8F2C608CF3108870BD1000FFF7B2FFA6
:1005E0002C0100D0F8B54746CE46884680B5EFF3DB
:1005F000108C72B6214D2C68002CFCD0BFF35F8F9D
:100600009A422CD8D4080727055D06190124174003
:10061000BC402C421FD007210127894609E0D4089D
:10062000055D06194C4639001440A1400C002942D2
:1006300011D001329342F2D201204042BFF35F8FCA
:1006400000220E4B1A608CF3108800280FDBC0BC10
:10065000B946B046F8BD2C4310003470EEE7BFF346
:100660005F8F00232B608CF31088012040424346AB
:10067000002BECD00898FFF765FFC0462C0100D096
:1006800030B5EFF3108C72B60A4C2368002BFCD007
:10069000BFF35F8F07230122CD0819408A40435DD5
:1006A00093434355BFF35F8F002323608CF310887F
:1006B00030BDC0462C0100D0044A1078431CDBB288
:1006C000172B00D9102313707047C0464006002036
:1006D00000B5054B83B00100009318221F23034887
:1006E000FFF780FF03B000BDD0730110D40E0020CF
:1006F0000021044B044ABFF35F8F02C39342FAD137
:100700007047C046000100D0800100D0054B064A6A
:100710001360064A136053609360D36013615361A2
:10072000936170478080808000E400E004E400E092
:100730001F2318401E3B8340002905D0C021044AD6
:100740004900535013607047802201498B50FAE7EB
:1007500000E100E001238340014A13607047C04676
:1007600000E200E070B50D00EFF3108672B60F4A9C
:100770001368002BFCD0BFF35F8F0D4B10309B68CC
:1007800084001B590B4A934203D09D4201D001F0D3
:1007900065F9074B9B681D51BFF35F8FBFF35F8FF8
:1007A0000022024B1A6086F3108870BD240100D02D
:1007B00000ED00E0C1010010F0B557464E46DE46A0
:1007C0004546E0B585B0060002911700EFF3108BA7
:1007D00072B6674A1368002BFCD0BFF35F8F002509
:1007E000644B5D579A46002D00DAA4E06B00624C22
:1007F00003935B199B009846A146C1444B46524661
:100800009B79103613705D4BB2009B68019299582A
:100810000B1B2F2B34D95A4B994200D0A4E0039BD9
:10082000584A9C46584B6544AD00635343460233D7
:100830006519E418554B0121043B1B1B1B055B0D7F
:1008400013436B80524BEF71AB80FF23AB71029B64
:10085000AB604B460B431900484B019A9B6899507B
:10086000BFF35F8FBFF35F8F0022414B1A608BF3A2
:10087000108805B0F0BCBB46B246A946A046F0BD04
:1008800001200A008243D379BB422FD845464E4609
:10089000130040491B1B5B415943090D3A4B6353FD
:1008A0003A4B02356519043B5B1B1B05354D5B0D4F
:1008B0002B4373800426B446E0444444131F1B1B9F
:1008C0004C46A17102991B05A16049465B0D2B4363
:1008D000A380314BE77101431360BDE75800C01896
:1008E00080002018C679BE422BD902000623D356B9
:1008F000002BF3DA101D82462848804604267642F3
:10090000B446E14450464E46361A3005400D824604
:1009100056461C48957106439680039A9446654452
:100920001D4AAD00641922604246A371029BA28059
:10093000E771A36090E701F091F8002553465D57F9
:1009400054E7101D824690884005001584464046B5
:10095000D444664604302018301AE0260005400DC5
:10096000360230438046C9E701F078F857E7C046C1
:10097000240100D06BCA00204406002000ED00E0F6
:10098000C101001000E0FFFF00A1FFFF740600207E
:1009900001BDFFFFAAAA00000148804701BD000079
:1009A000F0B5DE4657464E464546E0B50C0083B0EE
:1009B000EFF3108972B65F4A1368002BFCD0BFF3C7
:1009C0005F8F5D4B9A68030010339F00D5595B4AD7
:1009D000904695423DD0A5424ED0594EAA1B2F2A93
:1009E00037D8584A93461268944601226146924687
:1009F000824011401F22104052468240924601918F
:100A00008022514658468150BFF35F8FEFF3058235
:100A10009346002A32D101232A009A4390688442E7
:100A200008D17CE04B005B189B00F3189868844267
:100A30002ED01A00062151560029F3DA84424DD0F7
:100A4000019B002B1FD0C02251463E4B52009950B3
:100A50001960394B9B68DD51BFF35F8FBFF35F8F28
:100A60000022344B1A6089F3108803B0F0BCBB46F7
:100A7000B246A946A046F0BD1500EAE79342CAD0A7
:100A800000F0ECFFC7E7802351462E4AD150E0E743
:100A900006215956002922DB4A00501880003418DC
:100AA0008046A0689860E079D87106202056987139
:100AB000002825DBA488F01A640524154444001995
:100AC000E0240005400D24022043988052181E4B5C
:100AD0009200B6181A781970B271B1E7130059462E
:100AE00000290FD1FF3191711849918016490A7878
:100AF0009A71174A9B1B5B415A43120D0A709FE77C
:100B00001448E2E7144A1549D21A083A5002400D37
:100B100001439980124952080A43DA8090E706217E
:100B2000515613000029B7DA5A46002AEAD1454641
:100B3000DCE7C046240100D000ED00E0C101001058
:100B40004406002000E100E06BCA002001BDFFFF69
:100B5000AAAA000001BD00007E06002000F0FFFFF1
:100B600000F8FFFF10B58308040003202040FF2495
:100B7000054AC0009446844081409B0063441A6843
:100B8000A2430A431A6010BD00E400E070B50124DE
:100B90000443EFF30581EFF3108C72B6214A13681A
:100BA000002BFCD0BFF35F8F1F4B05001F4AED1ACF
:100BB0006D416A43120D1E4D8900AE6852B27658DF
:100BC000A6421CD00621595691421CD012215956DA
:100BD000914222D01E215956914220D02A215956A5
:100BE0000324914210D0134B19781A708171BFF30E
:100BF0005F8F00220B4B1A608CF3108870BDAB68BE
:100C00000D4C5C50EFE700246100091989005B1866
:100C1000FF21997109499980E5E70124F4E702244D
:100C2000F2E7C046240100D044060020AAAA000032
:100C300000ED00E06BCA0020C101001001BDFFFF04
:100C40001F2110B5091A0248FFF71AFD10BDC04652
:100C500073CA002000B5074B83B001000093002247
:100C600005230548FFF7BEFC002801DB1F23181AE7
:100C700003B000BDEC73011073CA002070B504000E
:100C80000E001500FFF718FD0100200000F006F827
:100C9000A680E580BFF35F8F70BDC046024B9C46C7
:100CA000614489000160704740000034F8B5134D7D
:100CB000134E2C00FF27B5421ED22368002B0FD005
:100CC000FFF7FAFC01002800FFF7E8FFA780BFF359
:100CD0005F8F0834B4420FD223682500002BEFD178
:100CE000FFF7EAFC01002800FFF7D8FF2771BFF3E8
:100CF0005F8F0834B442EFD3F8BDC04668070020C8
:100D00007007002010B50400FFF7D6FC010020009A
:100D1000FFF7C4FFFF232371BFF35F8F10BDC046F1
:100D200010B50400FFF7C8FC01002000FFF7B6FF74
:100D3000FF23A380BFF35F8F10BDC04610B5040032
:100D40000120FFF7C5FC044B9C46604480002060F6
:100D5000BFF35F8F10BDC046400000340A4B1968D6
:100D6000EFF3108072B60A68002AFCD0BFF35F8FE1
:100D70001B68BFF35F8F00221A6080F3108840BFAA
:100D8000002000217047C04618CA0020F0B5DE469A
:100D900057464E464546E0B585B0EFF3058203233E
:100DA00013409A0011000392B64A5258904601220D
:100DB0009A409146B44B1A604B46B448436343464D
:100DC00008229B5E9A46002B3DDA43469B881BB265
:100DD000002B00DBA1E043469B79002B00D0F3E021
:100DE000434608241C5F002C23DB42465269630003
:100DF00094461B19DB0063449C68DD68631C00D1CA
:100E00000FE1A248039984466144826A0B69A61ADD
:100E10009B1A9E4215D34A46036A1A4211D09B4838
:100E200000F0AEFB241A8D41002D02DCC4D1002C51
:100E3000C2D040BF05B0F0BCBB46B246A946A046F2
:100E4000F0BD0C61EBE7424652695B0093465344A8
:100E5000DB009B445B469E68DF6800F091FB801BD3
:100E6000B9410029B1DB002F00DAE5E05B46884A92
:100E70001B69934200D1D8E041465A460820085EDB
:100E80005288000410435A465169984704000D00E7
:100E900023002B4300D1CFE0002D00DBE8E0361B20
:100EA000AF4134003D005B469C60DD600021595E2F
:100EB000002900DA89E743465B6922009C462B0043
:100EC00048004018C00060448668C768921BBB4158
:100ED000002B00DA79E7434666460200009401954C
:100EE00019810CE07B00DB19DB00F31800980199F5
:100EF0009C68DD68001BA941002904DB1A0000235F
:100F0000D75E002FEEDA5B461F80534613804346C0
:100F10009B881BB2002B00DA5DE743461A69EFF3AA
:100F2000108172B61368002BFCD0BFF35F8F43466D
:100F30009B8842461BB29A4601235B429380136909
:100F4000BFF35F8F00221A6081F310885346002B95
:100F500000DA40E743465B699C46082343449B46CE
:100F600053465F0043465744FF0008229A5E674499
:100F70005E46BC68FD68002A19DB3B0000940195C1
:100F800067469C4604E01E000023F25E002A0BDB4D
:100F90000098019953009B18DB00FB189C68DD68E2
:100FA000001BA9410029EEDA6346BC461F005346E8
:100FB000338000217B5E3A809A46002BD0DA43468C
:100FC0009B79002B00D10BE70023424693714346E7
:100FD00046460821595E08364B1C00D129E7474692
:100FE0008C46556902E006004B1C17D04B005B187D
:100FF000DB00E8180A00E95E43881BB2002BF2DA36
:1010000001235B42DC178360C4606245ECD0318011
:101010003B89944603803A814B1CE7D1B84664462D
:10102000E1E66B1C00D0ECE6F9E65B465C6920006B
:1010300023699847002821D15B4642461B881381CB
:101040001269EFF3108372B611680029FCD0BFF368
:101050005F8F4246594652880A8042465146518027
:101060001269BFF35F8F0021116083F31088ACE633
:10107000064800F085FA24184D4114E76568246895
:1010800006E7C04628B900203C70054000400540F6
:101090008D0D001070B52E4C2569002D04D00A214D
:1010A0002C48FFF7FBFD70BD2B4E0321300000F0F4
:1010B0005DFAE660FFF700FB284B03229C46D02335
:1010C00022701B061B6801216370254B6044A360DE
:1010D0000F23800020610220638063694942A18060
:1010E00019800231198647311D83585218315A52DE
:1010F00075325C39995218320131995218320131E6
:101100009952183201319952083518329D520231E4
:1011100018329952183201319952183201319952CC
:101120001832013199521832013199521832013175
:1011300099520C4B0C49DC6001303562FFF712FB11
:1011400001210320FFF7F4FA084B1D60A7E7C04612
:101150008C06002018CA00200040054040000034E2
:10116000FFFF100028B900208D0D001038600540E9
:10117000004870478C060020F8B51F0008AB1B78AC
:1011800004001600002B07D100F002FA32003B00E9
:10119000121A8B41002B4CDB2269EFF3108072B6E0
:1011A0001368002BFCD0BFF35F8F62690223E15EFE
:1011B00094464B005B18DB006344002901DB1A886E
:1011C00062802269BFF35F8F0025156080F310886D
:1011D000002930DB069A9E60DF601A61079A5A6127
:1011E0005A8801325204520C161C002A1FD0B0B289
:1011F0000A045E8010432669EFF3108572B63268E8
:10120000002AFCD0BFF35F8FA2881A80A1802369D7
:10121000BFF35F8F00221A6085F310880749237897
:101220008C4601329A40E36863441A60F8BD012697
:10123000DDE70020FAE701204042F7E73C2000000C
:1012400070B5C646010000B50469EFF3108C72B6A4
:1012500020680028FCD0BFF35F8F02200D5E486934
:101260006C0080466419E4004444002D01DB2088B2
:1012700048800869BFF35F8F002606608CF31088F2
:10128000002D30DBE36063880598013320615B0447
:1012900006985B0CA26060611A1C002B21D090B2F2
:1012A0002B04628018430A69EFF3108672B6136844
:1012B000002BFCD0BFF35F8F8B8823808D800B6960
:1012C000BFF35F8F00221A6086F310880B7801321B
:1012D0009A40CB6805498C4663441A6040BCB046CE
:1012E00070BD0122DBE701204042F7E73C2000000F
:1012F00010B543890A14934233DD53009B184269A9
:10130000DB00944604696344EFF3108C72B62268E4
:10131000002AFCD0BFF35F8F5A88090494B2090CED
:101320008A4208D00369BFF35F8F00221A608CF3F2
:101330001088002010BD8022120214435C8001231B
:1013400002698371BFF35F8F002111608CF31088F5
:10135000054902788C469340C268012062441360BC
:10136000E8E70020E6E7C0463C200000F0B50400B6
:101370000D0006267642F717C64636196F4100B5AE
:1013800082B08F4214D811D000F002F932003B0035
:10139000121A8B41002B15DC002B44D020002900B1
:1013A00000F02AF902B080BCB846F0BD8642EBD905
:1013B0000026002700F0ECF832003B00121A8B41A7
:1013C000002BE9DD00F0E4F832003B00121A8B41FB
:1013D000002B0ADB00230193144B320000931448C6
:1013E0003B00FFF72DFF0028D8DBB0460026BC46A7
:1013F000104A114F7B6A9C4504D8B96A8845CDD9FB
:101400009C45CBD11168EFF3108072B60B68002BAE
:10141000FCD0BFF35F8F1368BFF35F8F1E6080F354
:10142000108820BFE6E7002AB8D0CBE75D0D00109A
:101430008C06002018CA00200040054070B5060048
:1014400000F0A6F8FA2204000D000023300000216D
:10145000920000F0E3FF00196941002902DBFFF769
:1014600085FF70BD012001494042F8E7FFFFFF7F83
:10147000F0B5CE46474680B504000D0083B0EFF3CB
:101480000587002F0DD0364A0020536A8B4203D3C4
:10149000926A0130A24250D303B0C0BCB946B046F4
:1014A000F0BD304B9846DB689946434648461E7867
:1014B00000F066F80B00494602000436B600715889
:1014C00020008E1A2900801A99418F4211DC0ED01B
:1014D00020BF234A0020536AAB42DDD3926A013019
:1014E000A242D9D2E81A421E9041C0B2D4E7864245
:1014F000EED900F04DF822002B00121A8B41002B80
:1015000020DB00230193184B2200009340462B0060
:10151000FFF796FE011E15DD114B2E005A6A95420B
:101520001CD89B6AA34217D34046FFF7E1FE0C4A42
:101530000020536A9E42AFD8D0E7581A421E90410D
:10154000C0B2A9E7064A0020536AAB42A4D3926A0C
:101550000120A242A0D2C5E79542E5D120BFE3E732
:10156000004005408C0600205D0D001010B5024AB9
:101570000248FFF715F810BD10740110D80E0020B6
:101580000300416A0A00986A596A8A42FAD1704790
:10159000034B596A0A00986A596A9142FAD1704716
:1015A0000040054070B504000D00124A536A19004E
:1015B000966A536A8B42FAD13000190024184D41C3
:1015C000AB4211D80ED02B000A494A6A9A42FCD38A
:1015D00007D1084A02E0516A994202D1916AA142B8
:1015E000F9D370BDA642EED9012301246442E51768
:1015F0005B42E9E700400540064A536A9942FCD83D
:1016000007D1044B02E05A6A914202D19A6A82429F
:10161000F9D3704700400540F8B5040006200D00DE
:1016200000F076F9002842D0364B3749E218534291
:101630005A418023DB039C469205344B62441A6076
:10164000334B1A6010000B689843FBD12D4B80215F
:10165000E3185A4253412F4A5B0049009952062031
:1016600000F056F92900C00000F05CFB0130C3090E
:101670001ED1402701226262A362266BF30722D4A7
:10168000E36A254B0620E51800232B60266300F053
:101690003FF93900800000F045FB7022E36A5A40B0
:1016A0007E2313402B601D4B23630323A364F8BDEB
:1016B0001B4A93421ED900231A4A1B4F6262A3623F
:1016C000266BF307DCD5194B144AE3181A60656AD8
:1016D000A26A0620AD01AD1800F01AF9144900F015
:1016E00021FBAD020100280000F01CFB0021FFF7E8
:1016F00059FFC5E74006800E9F011A003F180300FE
:10170000B9E7C0460080FCBF08C0004000E00040D0
:1017100000F0004040CA00202C100000010300002F
:10172000FEFF0000FFFF0000C0FF3F003030000060
:101730004E0E0000F8B5DE464E4657464546E0B52B
:101740008B4605000A991800160000F0EBFA0A9B78
:101750006C001F02324B64199C46A4006444636809
:1017600081469F4200D967602B1FDBB29846012B50
:1017700030D9C02380229B01E31812011A60294B43
:10178000AD0059599A4600291BD122687601724052
:10179000E0268023164042465B01E3181E60012AC2
:1017A00030D9802380229B01E31812011A6053462E
:1017B0004A4667605A51F0BCBB46B246A946A046AD
:1017C000F8BD586900F0AEFA431C5800C018033841
:1017D000FDD2DAE75B46012BCBD1C02303229B016C
:1017E000E3181A60023AA3681A42FCD0E023226888
:1017F000760156401E4080230A4A5B019246E31858
:101800001E60AD005A462168514003220A401A600A
:1018100001225B469A40A3681A42FCD0C1E7C04649
:1018200000800040E00E0020F0B546464F46D64608
:10183000C0B51F00344B44009C462418A4006444E7
:10184000636888461600FF2B02D880235B00636024
:10185000031FDBB29A46012B30D9C02380229B01A3
:10186000E31812011A60294B85005959994600293D
:101870001BD1226876017240E02680231640524632
:101880005B01E3181E60012A30D9802380229B016E
:10189000E31812011A6080235B0063604B465F51BE
:1018A000E0BCBA46B146A846F0BD586900F03AFA25
:1018B000431C5800C0180338FDD2DAE74346012B19
:1018C000CBD1C02303229B01E3181A60023AA3681C
:1018D0001A42FCD0E0232268760156401E40802345
:1018E0000A4A5B019146E3181E6085004246216862
:1018F000514003220A401A60012342469340A268E5
:101900001342FCD0C1E7C04600800040E00E00203A
:10191000014B8000C0587047E00E0020F8B504006D
:1019200020481D0017000E0000F0FCF901003800EF
:1019300000F0F8F9069B29041B0319432368002BC8
:101940001EDB194B194DE21853425A4180235B01AB
:101950009C461203164B62441A60164B1A6017001D
:101960002B689F43FBD1144B2660E2182123A06013
:1019700013602368002BFCDA0823E1601360F8BDD4
:101980003F2322681340B342DBD1A3681B051B0D24
:101990008342D6D1EE22E368D20213408B42D0D1EB
:1019A000EDE7C046001BB7000040FDBF08C0004087
:1019B00000E0004000F00040043000008023024AB4
:1019C0009B000B43D362704700800540142310B581
:1019D0000100188804331B88984710BD162310B5E2
:1019E0000100188802331B88984710BDF8B5474698
:1019F000CE4680B50F1E19D0142399460433040037
:101A00000025012698464B461888434621681B88C6
:101A1000984701C4431E9841013540420640AF42F9
:101A2000F1D13000C0BCB946B046F8BD0126F8E798
:101A3000AA23064A1B0113608D235B00D36004496F
:101A4000044B19605368002BFCDA704700400240D9
:101A500000B0FA00006002407047C04610B501486F
:101A6000FEF770FD3474011070B5074D074EB54296
:101A700009D20024013E761BB60808CD9847230002
:101A80000134B342F9D170BD98720110D4720110C3
:101A9000054B064A06491A60064A074B1A601000B1
:101AA0000B689843FBD1704700E00040BFCDFBFEC0
:101AB00008C00040FE7F3C0000F00040044BDB6C9F
:101AC000002B03D18022034BD2021A607047C0461C
:101AD000000011504C201150044A054B1A60054A71
:101AE0001368DB018033FBD17047C046FFFFFF0165
:101AF00000F0004008C000404022034B9A675A673C
:101B00001A67DA667047C04600F0014010B5FEF76C
:101B1000EFFD10BDF8B52D492D4C2E4D641AA610C1
:101B20003200302E00D930222800920000F0D2FC82
:101B3000BC2C41D80123711C08009C46264A302940
:101B40003DD92F272C196407E30FBF1B052F19D987
:101B5000302917D8002B36D0B1006A506146CC1A14
:101B6000F3189B006108EB18C900C9181A605A6085
:101B700008338B42FAD101232100994346188C4245
:101B80001AD0711CB300EA50302915D089006A5070
:101B9000B31C2E2E10D09B00EA50F31C2D2E0BD020
:101BA0009B00EA50331D2C2E06D09B00EA50731D7B
:101BB0002B2E01D09B00EA50084B9D60F8BD2F33BF
:101BC0009B1B9C46BDE73000C8E7C04600010010E3
:101BD000C001001000000020C101001000ED00E075
:101BE000002310B5294C82B0A367FFF721FF012223
:101BF000274B1A60636C012BFCD10322254B1A6022
:101C0000224A936B012BFCD1013300930121224A1C
:101C100022480433FFF782FE052301210093204A66
:101C20002048FFF77BFE0022022104201E4BFFF715
:101C3000FBFD0022012105201C4BFFF7F5FD0022D2
:101C4000002107201A4BFFF7EFFD0022002108209A
:101C5000174BFFF7E9FD8023DB00009300220021F2
:101C60000920134BFFF766FD0022104B00210620D0
:101C7000FFF7DAFD0420FFF74BFE0E4900F052F8A3
:101C800001000020FFF79AFE02B010BD0080004066
:101C90003CB0004030B00040002F68590080024046
:101CA000008C864700C00240001BB70040597307F4
:101CB000006CDC0240420F0001480421014B184730
:101CC000B0060020ED190010014B9B68184700007A
:101CD000B0060020124A936F9B0815D29066D16619
:101CE000002905D0FFE7FFE7FFE7516F106F70474E
:101CF00004B580210906C2175140002800D0C8430E
:101D000015F092FA002104BDF0B5146E556E576FB0
:101D1000166FFFF7E3FF1466556657671667F0BD49
:101D2000000000D0114A936F9B0813D210665166D1
:101D3000002905D0FFE7FFE7FFE7516F106F7047FD
:101D400004B5002801D00020C04315F06DFA002131
:101D500004BDC046F0B5146E556E576F166FFFF791
:101D6000E5FF1466556657671667F0BD000000D0A2
:101D700094464A4A926F9208624601D228E0C046D1
:101D8000F0B5464E346E756E776F366F00F020F802
:101D90009446424A14665566576716676246F0BD18
:101DA00094463E4A926F9208624601D254E0C04681
:101DB000F0B53A4E346E756E776F366F00F04CF8B2
:101DC0009446364A14665566576716676246F0BDF4
:101DD000002B24DB11D000293EDA00B5C943404274
:101DE00000D1013100F038F8C943404200D101313F
:101DF000DB43524200D1013300BD002AEBD1002861
:101E000001D1002905D00020C90FC90701D1C04365
:101E1000410800B515F0F8F90022002300BD00B517
:101E200000290ADBDB43524200D1013300F014F8F1
:101E3000C943404200D1013100BDC943404200D1F5
:101E40000131DB43524200D1013300F005F8DB439E
:101E5000524200D1013300BD002923D1002B18D1FB
:101E6000002A0CD0BC460D4F38667A66002100234C
:101E7000FFE7FFE7FFE77A6F386F67467047002894
:101E800001D00748010000B515F0BEF9002200237B
:101E900000BD02000B00002000217047000000D0B0
:101EA000FFFFFFFF002B00D0BFE0130C28D1002A5A
:101EB000E7D080B4114F39667A66FFE7FFE730B4A8
:101EC000040C7B6F396F1B0423433B667A66FFE784
:101ED000FFE7FFE7C04684B27B6F3D6F1B042343DF
:101EE0003B667A66FFE7FFE7C04600232C042D0C13
:101EF0007A6F386F00196941B0BC7047000000D09C
:101F0000F0B594460025140E01D112020835140FC5
:101F100001D112010435940F01D192000235D40F82
:101F200001D152000135D40B0134254F7C66254C7C
:101F30003C660E0C93B2FFE7FFE7FFE73C6F66439A
:101F4000360C7703BE467343DF0B5B04C01AB941FE
:101F5000130C7343DB18C91ACE086643360CB6441B
:101F600093B273431F0F1B01C01AB941130C734383
:101F70001F0B1B05C01AB941860D8F023E436643F5
:101F8000360C092D24DB520A7243801A7703460A65
:101F90006643360C16235B1BDE40DF40BF196446E8
:101FA0006643821B7046043506330100D940A840C1
:101FB000C01900D30131A24206D20023F0BD0000B7
:101FC000000000D0FFFFFFFF121B0130F3D3F1E749
:101FD00009277F1BFE406446A2B27243801A00D2DA
:101FE0000139220C7243130C1204821A99410B001E
:101FF0007046043513370100F940A840801900D31A
:102000000131002B02D1A2420AD2F0BD013000D32F
:102010000131121BFAD2013BF8D1A24200D2F0BD2D
:10202000013000D30131121BF7E7F0B51C0C00D0D2
:1020300080E00CB400251C0A04D11B02160E3343A9
:10204000120208351C0B04D11B01160F3343120179
:1020500004359C0B04D19B00960F3343920002354C
:10206000DC0B02D192185B4101351C0097186441CA
:102070000134464F7C66464C3C660E0CFFE7FFE79A
:10208000FFE7C0463C6F6643360C7703BE4697B207
:102090007743C01B00D20139C01B00D201399FB267
:1020A0007743C91BC91B170C77437E04FF0B801BAA
:1020B000B941CE086643360C0C2D33DBB644120B07
:1020C0001F053A431B0B97B27743C01B00D201395F
:1020D0009FB27743C91B170C77433E043F0C801B0C
:1020E000B941860D8F023E43664329277F1BFE4080
:1020F0000C3D7746AF40BF1930BCA2B2ABB27243C1
:102100007343801A9941220C7243130C1204801AF3
:10211000994102000B000137001BA941F9D2781E3A
:102120000021F0BD0C277F1BFE4077467F0BAF40A0
:10213000FF19E0E700245D1C07D0144F7D66396667
:10214000FFE7FFE7FFE7FFE73C6F95B29EB265430D
:102150006643401BB141150C1E0C654366433604B3
:102160002F0C3E432D04401BB141994204D2020082
:102170000B0020000021F0BD01D19042F7D3801A5E
:10218000994101349942F2D3F6E70000000000D0F3
:10219000FFFFFFFF48404140484018B4134B5B68C5
:1021A000019308BD18B4114B1B68019308BD9446F8
:1021B0000F4A926F920805D2624618B40B4BDB6847
:1021C000019308BD0A4AF0B5146E556E576F166F2D
:1021D0006246FFF7F2FF064A1466556657671667B0
:1021E000F0BD18B4014B9B68019308BD4009002065
:1021F000000000D0FFB550404240504059404B4095
:10220000594000E0FFB5154F4C00640D03D0BC42AF
:1022100004D10C0314D80020090D09055C00640DDD
:1022200003D0BC4204D11C030AD800221B0D1B059D
:1022300001264B4009D44B4003D58B4200D182424A
:10224000FFBD9942FCD19042FFBD0B43DB18034315
:102250001343F5D0C9434918FFBD0000FF07000034
:1022600000B5FFF7CFFF804100BDC04600B5FFF7C6
:10227000C9FF01D9002000BD012000BD00B5FFF756
:10228000B9FF01D9002000BD012000BD00B5FFF756
:10229000B1FF804100BD012040054A00121804D85A
:1022A0005A00121801D80020704701207047000022
:1022B0000021002805D17047C1174840401AFAD0C4
:1022C000C90713B5064B1B6898470CBC441CA240B9
:1022D0001005120B0349091B09051943114310BDD1
:1022E00014C900201F04000010B54C00620D8023AB
:1022F000D218DB00D21A5B057E2A10DD9E3A13DA73
:10230000CC170903490819435242D14064000134F3
:102310001532202A05DAD0400843604310BD002062
:1023200010BD0846604310BDC80FC018013810BD6D
:1023300018B4024B5B6A019308BD000040090020FD
:1023400010B50148FEF7FEF840740110132370B574
:102350001D78012D15D039DD1E48FFF73FFB060023
:102360001D48FFF73BFB1D4C80223100200000F090
:10237000B1F8022D27D01A48FFF728FB194B186037
:1023800070BD194B154C23606360A360E36023614B
:102390006361A361E36123626362A362E362236317
:1023A0006363A363E36323646364A364E3642365F7
:1023B0006365A365E36523666366A366E3662367D7
:1023C0006367A367E367094BA364D4E7034C074B38
:1023D000A364D0E7534400005346000040090020A6
:1023E0004C33000014C9002041230010F1230010D9
:1023F00007B5604601880A0A0230DF2AFAD1C9B25D
:10240000820804D3028840880004104300E000687A
:10241000014A5050039007BD4009002051434343F7
:10242000C9188C46110C83B24B4310B4040C6143A1
:1024300092B280B2504362431C041B0C001910BCC2
:1024400059411304120CC0185141614470470000F7
:1024500010B50148FEF776F8480A0510132310B5A9
:1024600010481C78FFF7BAFA0100012C0AD003DDEE
:1024700080220D4800F02EF80C48FFF7A7FA0C4B0D
:10248000186010BD084C5422200000F023F82300EF
:10249000084A80332168002900D122600434A34215
:1024A000F8D1E9E75346000018C900204C3300007A
:1024B00014C900205124001001480421014B184781
:1024C000C0060020ED190010014B1B6818470000E2
:1024D000C0060020014B5B6818470000C0060020C2
:1024E0007047C046F8B557464E464546DE46E0B50D
:1024F00099460A9B07009A460D9B8846934615000D
:102500000B9E9B0710D10C9B9E420DD29D1B14006D
:102510000E005D4422004B46013431002020B847B4
:10252000A542F7D1B0460B9E002E27D04446751920
:102530005346AA1B013E985D21004B46B847002E2A
:10254000F6D123002C0098460D9B9B070FD55B46C8
:10255000E51A0C9BAB420AD94646984622004B46E8
:10256000310020200135B8470134A845F6D82000B5
:10257000F0BCBB46B246A946A046F8BD2C00E3E736
:10258000F0B54F464646D646C0B584B098460EAB29
:102590001B78129F994694460D9C109B119EBA077A
:1025A00025D4002E4BD19C4200D3BFE001223A40FB
:1025B00092461F2C00D9B8E00C9A551E302201E03B
:1025C000202C03D001342A55A342F9D85246002AC0
:1025D0000DD0A6420BD9202C44D00C9A551E302287
:1025E00001E0202C3ED001342A55B442F9D1FA063C
:1025F0004DD57A053FD4002C39D10F9B102B00D13B
:1026000079E00F9B022B00D18AE030230C9A012441
:1026100013704B46002B3FD02D230C9A13550134D9
:102620000C9B624600930397434602960194FFF782
:1026300059FF04B0E0BCBA46B146A846F0BD01223D
:1026400015003D40AA463A422FD04A46002A02D100
:102650000C323A4200D0013E9C42BAD21F2CABD978
:10266000202E27D92024FA06DAD57A0503D4A342EE
:102670002DD0A6422BD00F9B102B32D0022B20D076
:10268000202CCDD030220C9B1B191A700134202C29
:10269000C6D04B46002BBFD17B070DD43B07BFD51F
:1026A00020230C9A13550134BAE79C429FD21F2C69
:1026B00000D881E720249AE72B230C9A1355013484
:1026C000AEE7202CACD00C9B1B1901343AE0631E02
:1026D000012C92D00F9A102A2AD0022A2FD01C0047
:1026E000D0E7BB060ED4202C9AD00C9B1A190134CB
:1026F00078231370C4E7BB060DD478230C9A012409
:102700001370BFE7202C00D18AE758220C9B1B19BD
:102710001A700134B4E758230C9A01241370B1E7FE
:102720000C9A603301241370ACE7202400265EE786
:10273000023CBA06E9D40C9A12191C00D8E70C9A8C
:102740009246534462221A709AE7C04610B5002898
:1027500000D110BD01F0F4FAFBE7C0460B0010B544
:10276000002802D049681B68984710BDF0B5DE46C6
:1027700057464E464546E0B59BB09B46249B89464E
:102780009846259B0B900C924046424619009A466B
:10279000FFF781FD002800D0D8E0012240465146D5
:1027A000774B5242FFF772FD002800D0CEE00122A5
:1027B00040465146734B5242FFF752FD002800D06D
:1027C000C4E00022002340465146FFF749FD00289F
:1027D00000D0B9E1424653460A9209938023289AD1
:1027E000DB001A400E92289A1A4201D10623269342
:1027F0000A9A099B1600134300D0C7E0289B0025C6
:1028000000261B0500D49BE100230D93269A0D9B07
:102810009A4200DC9FE1D01A431E26938023289A17
:10282000DB001A430023002728920D93279B0024E6
:10283000BB4200D9DC1B0223289A1A400E92289A28
:10284000134203D07B427B415B421C400D9B002B1B
:1028500007D00A9809992A003300FFF7A8FC0A90CC
:1028600009910022002340465146FFF7F9FC002859
:1028700005D0802000068446099961440991289A70
:10288000414B0B9D13400493269B0A9A0293099B8C
:1028900003940092019349465B4628000C9A00F08D
:1028A0008BF90400002F62D0289B220098061F237A
:1028B000C0179843631C984649465B466530A84755
:1028C0000D9B0025DA179C18DB0F9A465440013FF8
:1028D00001E0202D13D00AAA94461F232000634450
:1028E0000A2101355E19FFF71DFA303131702000E1
:1028F0000A21FFF717FA26000400092EE9D805235C
:102900000693002304930A330393534605970B9FC2
:10291000029312AB009342465B464946380001954C
:10292000FFF72EFE0E9B0400002B20D00C9BC51A37
:10293000279BAB421BD91E0022005B464946202044
:102940000135B8470134AE42F6D810E0289B424624
:102950000493279B49460393269B0B980293534667
:10296000009201935B460C9A00F026F904002000C7
:102970001BB0F0BCBB46B246A946A046F0BDC0465F
:10298000FFFFEF7FFFFFEFFFFFF7FFFF734B099F95
:102990009C467800400D6044FFF78EFC704A714BF6
:1029A000FFF71FFC704A714BFFF7FCFB3B03704ABB
:1029B0001B0B1A4304000D00300011006D4B002268
:1029C000FFF7EBFB6C4A6D4BFFF70BFC02000B00B3
:1029D00020002900FFF7E6FBFFF786FC0D90FFF7CC
:1029E0006BFC674A674B04000D00FFF7FAFB0022FF
:1029F000654BFFF7D7FBFFF777FC644A0600644B93
:102A000020002900FFF7EDFB040030000D000F96B9
:102A1000FFF752FC5F4A604BFFF7E3FB02000B003D
:102A200020002900FFF7B9FB02000B0006000F0091
:102A3000FFF7D7FB320004000D003B0030003900E7
:102A4000FFF7B0FB002210901191544B2000290099
:102A5000FFF7ADFB0022524BFFF7A4FB02000B0077
:102A600020002900FFF7A3FB00224E4BFFF79AFB43
:102A700002000B0020002900FFF799FB0D008021C8
:102A8000040032003B000020C905FFF786FB02006E
:102A90000B0020002900FFF785FB02000B001098B7
:102AA0001199FFF784FB0022314BFFF77BFB3E4B74
:102AB0000F9C9C46644400222305FFF792FB05000F
:102AC0000E0002000B000A980999FFF7C9FB0028C5
:102AD0000AD00D9B2800013B31000D930022304BA2
:102AE000FFF765FB05000E00C6270D992B0063312B
:102AF0008F42BF4128997F420437090500D495E6EB
:102B0000334300D182E6099C284A2100284B0A98C9
:102B1000FFF7B4FB002808D000222100254B0A98BB
:102B2000FFF79EFB002800D070E6269B002B00D10B
:102B30007CE60E9B5A1E9341269AD31A269375E67D
:102B4000002304270D9371E643460A9380231B0656
:102B50005344099342E6002326935FE601FCFFFFFE
:102B6000FB799F501344D33FB3C8608B288AC63F7C
:102B70000000F03F0000F83F61436F63A787D23F3A
:102B800071A379094F930A400000E03F1655B5BB89
:102B9000B16B0240EF39FAFE422EE63F00002C40B6
:102BA0000000244000001840FF0300002D431CEBF0
:102BB000E2361A3F80842E41F0B54E46DE46574637
:102BC0004546E0B597B09946209E219F229B8346BB
:102BD000984607910C923B00320030003900FFF715
:102BE0005AFB002800D0A9E1012230003900CA4B6D
:102BF0005242FFF735FB002800D0E1E0012230000F
:102C00003900C64B5242FFF741FB002800D0B7E025
:102C1000002230003900C24BFFF738FB002800D0FB
:102C200099E0002230003900BE4BFFF719FB002865
:102C300000D090E00022002330003900FFF710FBA5
:102C4000002800D0B1E000230D93249B5B0501D444
:102C50000623984608AB9C461722002430234146A1
:102C6000624404E0013413550139202C01D00929B4
:102C7000F8D8884630003900FFF736FB4346DA00C3
:102C8000A94B05009B181A685B6808920993FFF727
:102C900013FB02000B0030003900FFF77EFA089AA0
:102CA000099BFFF79EFA0A900B91FFF741FB8246C2
:102CB000FFF7FEFA02000B000A980B99FFF76DFA76
:102CC00000229A4B0A900B91FFF7E0FA002800D1FE
:102CD000C0E001239C46E2445046FFF7E9FA0200B7
:102CE0000B0008980999FFF7C1FA002802D00023C9
:102CF0009A4601354346002B6AD008AB17269C46FE
:102D000008956644554614E001235B4243440A217A
:102D100028009A46FFF706F8013430313719397028
:102D200028000A21FEF7FEFF092D00D8D0E0D0468A
:102D30000500202CE8D10EAB98460323249A1340BB
:102D4000012B00D196E02023249A01930392239A29
:102D5000434602921EE0249B58460493239B009610
:102D60000197039343460C9A029307994B46FFF74A
:102D7000FDFC17B0F0BCBB46B246A946A046F0BD6C
:102D8000249B5B070ED40322694B24990192039183
:102D900023990291009358464B460C9A0799FFF7E6
:102DA000A1FBE6E70422634BEFE73B003200002083
:102DB0000021FFF7F2F9012306000F000D9344E70D
:102DC000249B0393239B0293042301935A4BE1E733
:102DD0002800FFF771FA02000B0030003900FFF7FE
:102DE000DCF9524B002206000F00FFF739FA0EAB58
:102DF000984600280AD10022300039004B4BFFF7DB
:102E000045FA002802D1EB0700D50135202C94D0DB
:102E100008AA94461723280063440A2101341E1986
:102E2000FEF758FF3031280031700A21FEF752FFBB
:102E3000051EEBD10323249A1340012B1BD0202C19
:102E400000D180E70D9B002B35D02D224146631C1D
:102E50000A5579E700220A980B99344BFFF700FADC
:102E6000002800D046E75346002B51D101239C4651
:102E7000E2443FE72024239B002BE0D00D9B002B56
:102E800003D1249A0C33134202D0239B013B23939A
:102E9000239BA342D3D908AB9C461722302362441C
:102EA000202C00D14FE72399013413558C42C6D012
:102EB000202CF8D147E7249B5B0724D4249A2300D5
:102EC000120700D440E72022414601330A553BE770
:102ED0005746089D202C00D12DE722003021404686
:102EE000002F09D00132B154202A00D123E7D34367
:102EF0001B191B18002BF5D10EAB98462E2341460B
:102F0000541C8B5482E72B224146631C0A551BE755
:102F1000DB0700D4EEE6A9E7FFFFEFFFFFFFEF7F3F
:102F200065CDCD4165CDCDC1F87601100000E03F03
:102F3000FC740110007501100C750110249B0393A3
:102F4000239B029303230193004B23E70875011091
:102F5000F0B5DE464E4657464546E0B59FB01C00EC
:102F6000289B91460993C94AC94B8B4608901A6021
:102F7000002900D118E2002320789A46002800D1C9
:102F80001AE226001D005C460AE02A006F1C4B4630
:102F9000089D2100A8473D0001363078002870D0F8
:102FA0002528F2D110239B46083B9A46043B9846BD
:102FB000023B00219C46721C107816000300203B47
:102FC000DBB2102B03D8B34F9B00FB589F46030086
:102FD000303B092B32D900230A932A2868D00023DA
:102FE00098462E283ED00300683BDBB2122B1CD83B
:102FF000A94A9B00D3589F46012301321943DBE7BE
:10300000634601321943D7E7434601321943D3E7F8
:103010005B4601321943CFE7534601321943CBE7F0
:1030200080235B007078194301360300253BDBB237
:10303000532BAAD8994A9B00D3589F4600270300D8
:10304000B800C01901364000C018337830381A0073
:10305000303A0700092AF3D90A901800002398464D
:103060002E28C0D180237078DB0019430300303B49
:10307000721C092B00D8A1E12A2800D1B2E1160068
:10308000B1E7A346AA462C00D14503D801235B42F1
:103090004B449A464B46524659460020089DA84745
:1030A00020001FB0F0BCBB46B246A946A046F0BD0A
:1030B000099B40CB0A96002E03DB50780993561CDF
:1030C0008DE72838014370420A9009935078561CC6
:1030D00085E7782800D1DFE1582800D14CE26F283D
:1030E00000D14FE3622801D100F030FC10230A0028
:1030F0009A430B92692801D000F0A9FC0A230C9393
:103100004B0500D5D0E10B9A802311009B0019409C
:103110008B461A4200D0A1E2802311005B001940C7
:103120008A461A4200D0B6E313005B0600D5EDE2F2
:10313000130009991B0601D400F076FC08C91BB2E4
:10314000D8171A18424092B209919346DA0F129298
:10315000002B09D1802310220B99DB000B409143F7
:103160000B91002B00D0E4E20B9A6123920600D56C
:1031700041230EA91F228C46DBB262440A3B5F4604
:103180001395A34655460C9CB2460D9316000AE0D3
:103190003033DBB201357355A74200D2EDE2202D6A
:1031A00000D1EAE2070021003800FEF7BBFDCBB2F8
:1031B0000929EDD90D9A94466344DBB2EAE78023EE
:1031C0009B007078194301362FE77078682800D18A
:1031D000CDE180230136194327E770786C2800D1B0
:1031E000BFE180235B00194301361EE7462800D16A
:1031F0009BE10722099B0491073393430A9A190024
:103200000392424602920CC90898009201930991D8
:103210002A004B462100FFF7CFFC01360500BCE633
:103220002A006F1C4B46089D21002520A847013627
:103230003D00B2E68B0700D4ADE1099B2A009A4617
:103240006B1C9846534601CB21009A46089F4B467B
:10325000C0B2B8470A9B9C466544012B00D886E261
:10326000089B4746B04626004C4699463A00230044
:10327000013731002020C847AF42F7D1A14653465D
:10328000340046460993013687E6C046512F0010A8
:10329000981F00201475011058750110A4750110B5
:1032A000099B04CB9B4643460992002B00D1C6E004
:1032B00013789C46002B00D1BDE34346013B099A9D
:1032C0000133D0180A9F130001E0834203D05A78DB
:1032D0000133002AF9D1099A0A979B1A0B9380238C
:1032E0000A00DB001A400C92194204D00B9B4345A4
:1032F00001D943460B9302231A000A400D920B4258
:1033000000D187E16046002800D168E10C9B002BCA
:1033100000D10DE1A844C246099B57465B1B984665
:10332000089BB2462A0026004C46994609E0230035
:103330003100551CC8474346585D002800D126E19E
:103340002A009742F3D1A1463D00340056460D9B1A
:10335000002B00D043E15B46013609931DE6099B33
:103360001A0008CA9246002B48D0212211438B46EE
:103370000EA884461F216144099500220F27A44608
:103380000D0002E0202A0CD00B003C001C40200065
:103390003730092C00D807380132A85419090F2BEF
:1033A000F0D86446099D32E0DC4B20780893002376
:1033B0009A46002800D0E4E5002465E6434606006E
:1033C0000A9F9800C0180132400080191678030047
:1033D00030003038303B0928F3D9300098461600C9
:1033E0000A9700E6099B023604CB9046D24340463A
:1033F000D2171040804609933078F4E51022080077
:10340000904311321043834600224905B0D55B46F4
:103410000693082305934346049310230393002344
:10342000029316AB019200932A004B4621000898A4
:10343000FFF7A6F85346050001360993ADE513786A
:103440009C46002B00D1F7E202235B4237E72023A2
:1034500002009A43472A04D180231B011943022307
:103460009843452801D1202319430722099B049141
:10347000073393430A9A19000392424602920CC9F9
:1034800008980092019309912A004B462100FFF70A
:103490006DF90136050080E510230C930C230A001A
:1034A0009A430B924B0503D501230B9A9A430B9237
:1034B000692800D127E6642800D124E60B9A8023EE
:1034C00011009B0019408B461A4200D066E1802310
:1034D00011005B0019408A461A4200D039E21300FD
:1034E0005B0600D53CE113001B0600D4A6E2099B55
:1034F00004CB1204120C934609935B46002B00D0B8
:103500009AE10B9A1033110099430B91520500D4A4
:1035100092E100239A460B9B06930A9B0593434630
:1035200004930C9B039300230CE12023194360E6D2
:10353000099B0A9A5B1B98464B4691461F00B24670
:103540002600089C2A003B003100A0474346013575
:10355000585D0028F6D14A463400B94656460A92CC
:10356000F5E6C0239B00B078194302365DE5C02321
:10357000B0781943023658E50C230A009A431433F5
:103580001A43103B0B920C934B058DD496E7A14642
:1035900034005646DBE60A9A012A00D853E26B1E35
:1035A0009F18089BB04626004C4699462A002300E7
:1035B000013531002020C847BD42F7D1A146340073
:1035C0004646099B3A0001CB210098467D1C4B469C
:1035D000089FC0B2B847434601360993DDE40B9B10
:1035E0000A9AA8469A4200D8B5E694466544ED1A70
:1035F000089B4746B04626004C4699463A002300B1
:10360000013731002020C847AF42F7D1A14634002E
:103610004646A0E60B9A0A99531C914200D814E240
:103620004B199B1A1F00089BB24626004C46994630
:103630002A002300013531002020C847BD42F7D1C0
:103640000A9BA14601330B93099B34001B78564615
:103650009C466046002800D058E67CE60722099B7D
:1036600007339343013294469C4462465F68099253
:103670001A68FB1710931193109811990300534087
:103680000E930B007B400F9394460E9A0F9B121AD9
:103690008B410E920F93FB0F6246129300233A4325
:1036A0009B463DD00B9A6123920600D54123002210
:1036B000DBB20EA90A3B8C4692460D9343461F325D
:1036C00062441395159655460E9E0F9FA24690464E
:1036D0000C9C14930CE03032D2B2434601355A555B
:1036E000BB4500D18AE1202D00D18AE106000F0000
:1036F0002200002330003900FEF752FBD2B2092A23
:10370000E9D90D9B9C466244D2B2E6E7FF230999B2
:1037100004C913401A00099117E5C046E1240010BE
:103720000B9A1033110099430B915205BAD500231F
:103730009A460B9B06930A9B0593434604930C9B66
:103740000393129B02935346019316AB2A000093F6
:1037500021004B460898FEF713FF013605001CE4D4
:10376000FF22099B02CB11408B460993C5E65346C5
:10377000454609930136FFF710FC56465C46AA46BB
:10378000139DD6E708230C930B910B99642800D066
:1037900084E60B9B5B0500D586E6B4E40722099B13
:1037A00007339343013294469C44624609921A6857
:1037B0005B6810009B4613005A46134307D10B9ACF
:1037C0001033110099430B91520500D5A1E60B9AD5
:1037D0006123920600D541230022DBB20EA90A3BE9
:1037E0008C4692460D9343461F3262445F461295C3
:1037F000A34655460400B24690460C9E13930DE036
:103800003032D2B2434601355A550023BB4200D173
:1038100000E1202D00D100E104000F003200002360
:1038200020003900FEF7BCFAD2B2092AE8D90D9B74
:103830009C466244D2B2E5E70B9A6123920600D51A
:103840004123DBB20EA90A3B1F228C460D932300B5
:1038500062445C461295170055469B46B2460C9E44
:1038600008E03033DBB201357B55B4420ED3202D56
:103870000CD0040031002000FEF754FACBB2092925
:10388000EFD90D9A94466344DBB2ECE756465C46AA
:10389000AA46129D3FE6099B1A0008CAD91713923F
:1038A0005A184A409246DA0F1292002B08D1802310
:1038B00010220B99DB000B4091430B91002B2BD175
:1038C0000B9A6123920600D541230EAA1F27944626
:1038D000DBB20A3B0D9567445D460993A346544607
:1038E000B2460C9E08E03033DBB201357B55B44262
:1038F0000ED3202D0CD0040031002000FEF712FA68
:10390000CBB20929EFD9099A94466344DBB2ECE7BC
:1039100056465C46AB460D9D0B9B2A0006930A9BC0
:1039200021000593434604930C9B08980393129B34
:10393000013602935B46019316AB00934B46FEF7AC
:103940001FFE139B05000993FFF727FB02230C932F
:103950001AE7099B04CB92461293002A08D18023D0
:1039600010220B99DB000B4091430B91002B2BD1C4
:103970000B9A6123920600D541230EAA1F27944675
:10398000DBB20A3B0D9567445D460993A346544656
:10399000B2460C9E08E03033DBB201357B55B442B1
:1039A0000ED3202D0CD0040031002000FEF7BAF910
:1039B000CBB20929EFD9099A94466344DBB2ECE70C
:1039C00056465C46AB460D9D0B9B2A0006930A9B10
:1039D00021000593434604930C9B0898039300230E
:1039E00002935B46019316AB00934B46FEF7C8FD6E
:1039F000129B050009930136FFF7CFFAB44200D8B5
:103A000071E6149B54460E960F97AA469846159E4B
:103A1000139D8EE6A64200D8FBE6139B56469846B9
:103A2000AA465C46129D76E508C9D8171A18424086
:103A30000991FFF78AFB00230B9350E4099B04CB09
:103A40009346099359E52F00BBE50B9301E6063B2E
:103A50000C939AE600B585B0039101210290009382
:103A6000034813004A4202A9FFF772FA05B000BDED
:103A70005D27001010B5094A0300146884B0002CBB
:103A800008D0012200910648524203A9A047012014
:103A900004B010BD00F0A0F90020F9E7981F002045
:103AA0004D27001000BEFDE710B5FFF7FBFFC04635
:103AB00070B5FDF7D9FF074D074EB54209D2002476
:103AC000013E761BB60808CD984723000134B34267
:103AD000F9D170BDD4720110DC720110030010B571
:103AE000080011001B68984710BDC046F0B5464657
:103AF0004F46D646C0B5437D80460E001700002BCA
:103B000046D0002A3FDD4B1E9946244B0125002458
:103B100000209A460DE04B461B5D0D3B5A42534137
:103B2000325DDBB20A2A0BD02B00013401359F42F3
:103B30001ADD002CEFD14346325D1B7D0A2AF3D1FA
:103B4000002BF1D1A04204DA4346211A1B68301839
:103B50009847434650461B68022198470134280085
:103B60002B0001359F42E4DC874204DD4346391ACD
:103B70001B6830189847F619013E33780D3B5A42BE
:103B8000534142461375E0BCBA46B146A846F0BD63
:103B90000368110030009847F5E7C04648770110E8
:103BA000F0B5C6460C000968060000B5802906D0AD
:103BB0004B1C23606418267180BCB846F0BD0F4BC7
:103BC0001D68002D16D0231D98460D4F02E02D696B
:103BD000002D0FD02B68002BF9D03B68002B01D0B3
:103BE000AB42F4D1280041462268FFF77FFF2D69E0
:103BF000002DEFD101230021DBE7C046681D002026
:103C00006C1F0020F0B5DE4657464E464546E0B5EF
:103C100085B017001C0006000D00FDF7B9FC00235D
:103C2000314A12184B41002B59DB304908008A46B3
:103C300013F012FB01906B1C03D1300013F062FAF9
:103C40000500002C26D12A4B98462A4B1C68002CD4
:103C500015D0002F21D1284F02E02469002C0ED06E
:103C60002368002BF9D03B68002B01D0A342F4D18C
:103C700020002A003100C0472469002CF0D1019BAC
:103C8000002B28D1280005B0F0BCBB46B246A9469F
:103C9000A046F0BD194B9846D7E7174B994602ABA3
:103CA000DF1D0A239B4602E02469002CE7D023682D
:103CB000002BF9D04B461B68002B01D0A342F3D157
:103CC0002A0031002000C0475B4601223900200055
:103CD0003B70C047E8E7504613F08EFAD2E7012266
:103CE000074B5242A1E7C04640420F006807002040
:103CF000DD3A0010681D00206C1F0020ED3A001016
:103D0000FFFFFF7F0A4A1368002B05D10CE01A0061
:103D10001B691032002B07D09842F8D1002902D13C
:103D200003691360016170470029FCD01060FAE755
:103D3000681D002010B500F0AFF9012010BDC0468D
:103D4000F0B5CE46474680B583B06B460600DD1D14
:103D50002870FDF71DFC00231A4A12184B41002B56
:103D60002BDB19490800884613F076FA174B814679
:103D70001C68002C14D0164F02E02469002C0FD0D0
:103D80002368002BF9D03B68002B01D0A342F4D16B
:103D9000200001222900FFF7A9FE2469002CEFD1A1
:103DA0004B46002B05D1300003B0C0BCB946B0462D
:103DB000F0BD404613F020FAF5E70122054B5242D0
:103DC000CFE7C04640420F0068070020681D002072
:103DD0006C1F0020FFFFFF7F70B5040013F092F905
:103DE00001230100050001222000FFF70BFF084B13
:103DF0001C68002C06D06368002B05D09847246906
:103E0000002CF8D1280070BD2469002CF3D1F9E70B
:103E1000681D0020F0B5CE46474680B5A5B0040029
:103E20000D00FDF7B5FB00232A4A12184B41002B69
:103E300049DB294E300013F00FFA002307000393EB
:103E400022002B00254803A9FFF704FE039B8046B0
:103E5000002B14D1224B1C68002C06D06368002B69
:103E60000BD098472469002CF8D1002F27D1404669
:103E700025B0C0BCB946B046F0BD2469ECE7184B8C
:103E80001D689946002D22D0164C02E02D69002DA8
:103E900011D02B68002BF9D02368002B01D09D4254
:103EA000F4D1039B28001A0004A90193FFF71EFE1A
:103EB0002D69002DEDD14B4603951C68CCE73000F1
:103EC00013F09AF9D3E70122074B5242B1E7039569
:103ED000CBE7C04640420F0068070020A13B00101E
:103EE000681D00206C1F0020FFFFFF7F0FB400B58E
:103EF00083B004A901C90191FFF78CFF03B008BC8E
:103F000004B01847F0B50D1E15DD0E4B0D271A68CD
:103F10000D4B4519D31859424B410C495B005E5E6D
:103F200020210478A64207D093691942FCD10130C0
:103F30001460A842F5D1F0BD93691942FCD1176015
:103F4000F2E7C04644CA00200080FCBF40CA0020FF
:103F500030B504000D1E24DD002010211A4B013C59
:103F60001A689369194217D1013093691942FCD13B
:103F7000136823548542F4D1144B1B68002B0AD0DC
:103F800050239363516B183B0B4011498C4662449C
:103F90001360002814D030BD0C4B1B68002BEFD1F0
:103FA000F7E70A4B1B68002B0AD05022064B1B6810
:103FB0009A63596B183A0A4005498C4663441A6063
:103FC00003204042E7E7C04644CA0020CC0E002050
:103FD00034100000064B10B51B68002B06D00021E2
:103FE000044A12689163044A1068984710BDC0469D
:103FF000CC0E002044CA0020D00E00200822034B23
:1040000019688B691A42FCD17047C04644CA002027
:1040100070B51B4E1B4B32680500D3185842434104
:1040200014331C00002D04D0174B1A68002A11D03D
:1040300070BD154E3368002BFAD000212000956327
:10404000FCF776FB20001149FCF7AAFC104B356009
:104050001D60EDE71D600E4B200019600B49FCF759
:1040600081FB01212000FCF763FB502233689A6337
:10407000596B183A0A4007498C4663441A60D7E7DF
:1040800044CA00200080FCBFCC0E0020D53F0010A9
:10409000D00E0020341000000D4B10B51B780D4BD6
:1040A0000D4C1B780D4B02211B780D4B002023601B
:1040B000FCF782F902210120FCF77EF9E12120685A
:1040C0004902FDF7A9FA01210648FFF71BFE10BDC2
:1040D000FC0A0510000B051044CA0020040B051053
:1040E00000400340D006002010B505F0ADFF10BD24
:1040F0000123F0B50B7283B0040005F0D9FF050071
:10410000431C0DD11249134B1A685B68009201934E
:104110008A60CB60236820005B69984703B0F0BDDC
:10412000FDF736FAFA2206000F00002328000021CE
:104130009200FEF773F936184F41002F03DB044954
:104140008E60CF60E6E70126034F7642F7E7C04670
:10415000F806002008740110FFFFFF7F70B5094DBD
:1041600004002B78002B08D00123074920000B7294
:104170002368DB699847012070BD00F0D9FB01235B
:104180002B70F1E767CA0020E806002010B5040094
:10419000036804499B699847236820001B6A024909
:1041A000984710BDF8060020E80600200020704760
:1041B0007047C04610B5FDF7EBF9002905D0FA228B
:1041C00000239200FDF7ECFD10BDFA218900FDF7F8
:1041D000A9FDF9E7020083680832002B04D107E04B
:1041E0001A001B68002B03D09942F9D1002003E08C
:1041F0000023012011600B607047C0468368002BCC
:1042000008D0994202D107E0994207D01A001B68F2
:10421000002BF9D100207047020008320B68012002
:104220001360F8E74368021D002B04D107E01A0071
:104230001B68002B03D09942F9D1002003E0002332
:10424000012011600B6070474368002B08D0994231
:1042500002D107E0994206D01A001B68002BF9D161
:1042600000207047021D0B6801201360F9E7C0466B
:10427000F8B54746CE468368804680B5002B29D0E6
:10428000082343449946FDF783F943469E6804009A
:104290000D00002E58D000234F469C46B268F368AC
:1042A00020002900801A9941002902DB14001D001A
:1042B000BC4637003668002EF0D16346002B43D051
:1042C000196840460A681A604B68984743469B68DD
:1042D000002BD8D143465C68002C31D00025237ACE
:1042E000002B29D021006368257240469847246836
:1042F000002CF4D1174B1868596843469E68002E6D
:1043000004D112E020002900002E0ED0330002005C
:104310009C68DD680B00121BAB413668002BF1DC9A
:10432000F2D1002AEED1002EF0D143461861596136
:10433000C0BCB946B046F8BD2468002CCFD1D9E73F
:10434000044B18685968F0E743465C68002CC5D1F7
:10435000D0E7C04608740110104A114B10B512186E
:104360004B419900900F0843990F504059400D4A16
:104370000D4BFEF753F803004A01C00E1043CA0E5E
:1043800058405140094B0A4AFEF748F803004A00DA
:10439000C00F1043CA0F5840514010BD157C4A7FD2
:1043A000B979379EB9E5E41C6D4758BFBB49D09435
:1043B000EB113113F0B504684568060023002A00AC
:1043C000C6468068F16803430A4300B5134304D12D
:1043D000FDF7DEF803000B43FAD02A06230A6040FB
:1043E000270613432A0A3A43070CBC4669404B4050
:1043F000984663460F041F43424003045A40434615
:104400007B4032607360C20E4B011343C90E400102
:104410000843B360A10FAB000B43A200A4185D4199
:10442000EB01620E1A43E4016B0E2343F0601E00A1
:1044300017005B0FD100F00019438019794180BC4F
:10444000B846F0BDF0B5DE4657464E464546E0B5A7
:10445000B84B8DB01B78002B00D1ECE008AB984630
:10446000B54BB64C0393B64BB64F04931022049948
:104470004046FEF72FF8B44B1B78DBB20593FDF7EF
:1044800087F8FFF769FF089B584043465B68089030
:10449000594043465960AD4B9B69DB0400D5C0E0F1
:1044A000FDF7DCFAEFF305839B46B9465F46A84B60
:1044B000256866689A4628003100002F1AD0FDF75B
:1044C0009BF8EFF3108272B653461B68002BFBD0AB
:1044D000BFF35F8F2368AB420FD0BFF35F8F002124
:1044E0005346196082F310882568666828003100F9
:1044F000002FE4D1FCF73AFFE3E76368B342ECD165
:104500000125924B1600D8694F460540FDF740F84B
:104510000A22002380185941002900DA7DE03A6818
:104520007B6892185B412060616028001C001300CA
:1045300010430093019438607C60BFF35F8F0024C8
:10454000834A146086F310880199FFF705FF4346FC
:104550009B68804A58404346DB689446594043462E
:104560009860D960039B7C4A1B78DB0063449868A1
:1045700090425ED00021FFF7EFFE089B5840434673
:104580005B680890594043465960EFF3108572B656
:104590006F4A1368002BFCD0BFF35F8F6A4B059AFC
:1045A0001B78934219D0049940460B6840681A0062
:1045B000089B5A40089242464B68434053608B68C0
:1045C00000934346009A9B685A40CB684146C968AD
:1045D00000934B4041468A60CB604046FFF7EAFEBD
:1045E000102206000C0004984146FDF773FF564B5D
:1045F000554A1B780133DBB21370BFF35F8F002283
:10460000534B1A6085F31088300021000DB0F0BCC8
:10461000BB46B246A946A046F0BD01204F494042E4
:104620007DE74F4BDA6BE0231340402B00D039E796
:1046300036E79C609EE74B4B9946186859684A4B91
:104640009C464A4B9846830E8F011F438601030CFC
:104650000D041D4332003B00040412196B41121A71
:104660008B41614601C98C46002100900191009860
:10467000019980185941C445E5D14B4618605960ED
:10468000FFF76AFE08AB9846089B584043465B68B4
:1046900008905940434606A8596000F021F9069851
:1046A0000799FFF759FE43469B6858404346DB682D
:1046B000594043469860D960244B9B69DB0436D54A
:1046C000274BDA6BE0231340402B30D0EFF3058308
:1046D0009A4640230024039300231D4F0093019426
:1046E000164C00239B465346256866682800310017
:1046F000002B19D0FCF780FFEFF3108972B63B68EE
:10470000002BFCD0BFF35F8F2368AB4230D0BFF3E8
:104710005F8F5B463B6089F3108853462568666867
:1047200028003100002BE5D1FCF720FEE4E7FDF77F
:1047300095F9CBE76FCA002064CA00203809002031
:10474000C8000020D800002065CA002000000640F4
:10475000300100D000000340FFFFFF00FFFFFF7F9C
:1047600000800040C0000020001C04200020042025
:104770006368B342CBD1009A019B100019008018E6
:104780005941484BDA6901231340034300930191D7
:10479000FCF7FEFE0A22002380185941002949DB5C
:1047A000039B20606160012B3AD1009801993E4F34
:1047B00038607960BFF35F8F00233C4D2B6089F335
:1047C0001088FFF7C9FD089B584043465B68089076
:1047D000594043465960FCF7DBFEFFF7BDFD4346F9
:1047E0009B6858404346DB68594043469860D9600F
:1047F000EFF3108672B62B68002BFCD0BFF35F8FEF
:104800002B4B1B78002B19D02A4B03932A4B049374
:10481000BFF35F8F0022254B1A6086F3108825E6D0
:10482000BFF35F8F00233B6089F31088039B013B3C
:10483000039356E7012021494042B1E7204BDA6853
:104840001F2A23D05A691F2A22D0DA691F2A25D0AD
:104850005B6A1F2B1FD0FDF701F9FF22FF231549CB
:10486000DB000A70174A03919446052263445A609C
:104870004046FFF79FFD104B10221800414604935D
:10488000FDF728FE01230A4A1370C1E700230393B2
:10489000039BDAB2E3E71C3B0393F9E7022303939C
:1048A000F6E7C04600000640D8000020300100D0E6
:1048B0006FCA002064CA0020C8000020FFFFFF7FED
:1048C000000003400800034010B5FFF7BBFD10BD1A
:1048D00010B5024800F00CF810BDC04608C9002011
:1048E00010B508220149FDF7F5FD10BD08C90020EB
:1048F00030B5002589B004000922002101A80095E7
:10490000FDF7E2FD0922002105A80495FDF7DCFD75
:104910004B236A466846137004A90D2212F064FC0A
:104920001521082220006944FDF7D4FD09B030BDEF
:1049300010B501F0C9FB00F01FFB00F0E3FC00F034
:104940008DFD05F0C9FB01F04FFC00F057F905F0B3
:1049500033FB10BD40BA80B27047C04600BA704702
:10496000F8B54746CE4680B5070104003818000167
:1049700010308146404D414E2B688846B144002B93
:1049800002D02A7AA24258D0EB68002B02D02A7DAE
:10499000A2424BD0AB69002B03D02022AA5CA242DA
:1049A0003DD06B6A002B03D02C22AA5CA2422FD0F0
:1049B0003B191B01F318DB7B002C04D0B27A022ACE
:1049C00041D0012C06D08D225200B25C022A43D085
:1049D000022C05D02A4AB25C022A43D0032C03D011
:1049E000284AB25C022A42D0032B0DD8264D9B00E8
:1049F000585905F05FFE00223C1924013619F37B5B
:104A00009B005A510423F373C0BCB946B046F8BDAD
:104A100041464846AA6A984700236B62C8E7414668
:104A20004846EA6998470023AB61BAE741464846E1
:104A30002A6998470023EB60ACE748466A689847C4
:104A400000232B60A0E7F27B9A42BAD104233C19E1
:104A500024013619F373D7E72022FF32B25C9A4261
:104A6000B6D1F3E7094AB25C9A42B7D1EEE7084AF9
:104A7000B25C9A42B8D1E9E7F0180020281900206A
:104A80002A0200003A030000E01800202F02000074
:104A90003F030000F0B5DE464E4657464546834686
:104AA000E0B5030187B04F4A01935B441B01D61860
:104AB000F27A012A00D992E04B4992008C58002CDE
:104AC00000D17FE010331D00464B9C466544280012
:104AD00012F018FBA022123081B29200362000F0B2
:104AE000CDFE8146002866D003AC0C2200212000B8
:104AF000FDF7EAFC3089FFF72DFF01232080A3702A
:104B00000C22FF3321004846A38001F083F9374B84
:104B10000C269A464F46013D6B1C98466B78002444
:104B200045462E2B06D156E06B7801340135E4B2B0
:104B30002E2B01D0002BF7D14346EB1A9BB299469E
:104B40002300F318534542DC22003100380001F005
:104B500015FA731C4A469BB234194146380001F0DD
:104B600095F9A3B22A785E1CB6B2002AD4D11C00F3
:104B70003100380001F002FA1D4B02340422029386
:104B800002A9A3B2380001F081F9164A019B9446AC
:104B900015495B441B0163448C46DA7ADB7B15497B
:104BA0009B009200585862443523390005F00CFDF3
:104BB000380000F0C5FF07B0F0BCBB46B246A946BE
:104BC000A046F0BD0021FFF7CBFEB472F3E738003A
:104BD00000F0B6FFEFE7002200239146B1E7064858
:104BE000FBF7B0FC2819002020190020FEFF000070
:104BF00000010001E0180020947701107047C046C2
:104C000082B0012801D902B070478000002903D08A
:104C10000A68044BC250F6E7034A024B126801923D
:104C2000C250F0E72019002050900110F0B5464620
:104C30004F46D646464BC0B5464E8D27340000251C
:104C400098467F00A37A022B35D02CD8002B1FD09A
:104C5000414B9946414B9A46FFF736FEB37A80B2F4
:104C6000022B40D0F35D022B43D04B46F35C022B6A
:104C700048D05346F35C022B4DD002230122A3728D
:104C800000232081E372280022736373FFF702FF81
:104C900001351134EDB2FF34042DD3D1E0BCBA4656
:104CA000B146A846F0BD032B4ED12368002B13D18B
:104CB0000023A372ECE7237B013BDBB22373002BC1
:104CC000E6D1637B0133DBB26373042B29D02373FA
:104CD0002800FFF7DFFEDBE7013B2360002BD7D185
:104CE0000023A372D4E733898342B5D0F35D022B4E
:104CF000BBD11733FF33F35A8342ADD04B46F35C3D
:104D0000022BB6D18A239B00F35A8342A4D0534688
:104D1000F35C022BB1D1CE239B00F35A8342ACD17A
:104D20009AE7E37A002B08D142465268002A04D061
:104D300001226373E2722273CAE700212800FFF7A1
:104D40000FFE0023A372A3E70548FBF7FBFBC04659
:104D500020190020281900202A0200003A03000030
:104D6000C8770110F0B583B06B469C1D00232380EB
:104D700001331E000640184205D0002903DD0378E8
:104D8000013963700130032213000340104205D043
:104D90000023012938DD03880239023007294BDD61
:104DA000083907220F009743020005000832BF1898
:104DB0002A689A189A429B415B42D2186B68083560
:104DC000D3189342924152429B18AF42F0D1CA0885
:104DD000551CD200ED00891A1A044019120C1B0C44
:104DE0009B18012910DD02889B188A1E012A05DD07
:104DF00045885B19052901DD81885B1851084D1C28
:104E00006D0049004019511A012901D10278227020
:104E10002288D218130C1204120C9B18180C1B04B5
:104E20001B0CC018002E04D0030600041B0C000E3F
:104E3000184380B203B0F0BD1A00D0E7F0B54F467A
:104E4000D6464646C0B591461A68089B8A461968F8
:104E500004000B041B0C090C5B181104090C5918F5
:104E6000130C5B18180C1B041B0CC318180C1B0428
:104E70001F0CC719002C21D0FF23002601259846BE
:104E800061896068FFF76EFFC019030C0004070C0E
:104E9000DF1963891D4207D042463B06380A1B0CC6
:104EA000104003431F006E402468002CE8D1002E00
:104EB00004D03B063F041B0C3F0E1F43534698B2E1
:104EC000FFF748FD04004846FFF744FD2018C019CD
:104ED000030C0004000C1818030C0004000C181834
:104EE000C04380B2E0BCBA46B146A846F0BDC04659
:104EF00010B582B0049C0094FFF7A0FF02B010BD73
:104F000010B5FFF72FFFC04380B210BDF0B5C64605
:104F1000040000B500282AD0FF2300260027012521
:104F2000984661896068FFF71DFFC019030C0004F3
:104F3000070CDF1963891D4207D042463B06380A39
:104F40001B0C104003431F006E402468002CE8D166
:104F5000002E09D03B0638041B0C000E1843C0433A
:104F600080B280BCB846F0BDF84380B2F9E7014892
:104F7000F7E7C046FFFF000003220A4B002103337E
:104F80009343094A09481360FA22120119719918CA
:104F9000016001201A60087105499950054A1360A3
:104FA0007047C04640B9002038B900203CB9002005
:104FB000A00FA00F9C1F0020F0B5D6464F464646D6
:104FC000C0B500285DD0830700D069E00300394AEE
:104FD000083B12689A4260D837490C300968814210
:104FE0005BD31879002861D0FA201D880001854222
:104FF0000CD85C88A246844208D8981A80B28046B1
:105000001619A04205D03088404502D02B48FBF746
:1050100099FA5019814202D044884445F6D10024BF
:105020001C71274CA44624689C4202D96446236024
:105030001C00994237D9834213D00779002F10D131
:1050400081420ED0A04224D005881D800188FA201C
:105050000001814205D040465118488059888A464F
:105060005618B3420DD0317900290AD1A3420DD090
:10507000FA2135801B8809018B4202D0D318524691
:105080005A80E0BCBA46B146A846F0BD61460E6003
:10509000EEE761461C000B60D6E70A48FBF752FAC0
:1050A0000948FBF74FFA0948FBF74CFA0848FBF7A9
:1050B00049FAC04638B900203CB9002050780110A8
:1050C0009C1F00200C780110E877011084780110F3
:1050D00028780110F0B5C6463B4BCA1C00B51340FA
:1050E0000B2B3FD9FA22120193423ED899423CD869
:1050F000364A146884425ED8354A126882425AD9C8
:105100000500083D291B8AB290462E884146320090
:10511000083A521A92B29A4250D320D0A71939793C
:10512000002924D1FA22120196424AD03A88294E07
:105130009446424608329B1832689BB2BA4237D036
:10514000E21861461180414600265180FA2116710D
:105150002B80128809018A4201D0A218538080BC9A
:10516000B846F0BD0C239942C2D90020F7E71F00D2
:105170001437BFB2BA42F2D3424608329B18FA2221
:105180009BB2120196421CD0124FE218396891422C
:1051900000D93A60414600275180FA2117711680E4
:1051A0002B80128809018A42D9D0A4186380D6E7DF
:1051B000E2183260C5E70848FBF7C4F90748FBF777
:1051C000C1F90748FBF7BEF9FCFF000038B9002021
:1051D0003CB900209C1F0020A0780110B878011075
:1051E000D8780110F0B5D6464F464646C0B50028DF
:1051F0002FD03D4CC31C1C400B2C30D9FA231B0173
:105200009C4226D8A04224D8384BFA229C461B68E0
:1052100012019A46364B121B1E6853469B1B98B2CE
:105220001B0490461B0C9A4213D908277F4208E0C2
:105230001588FB1A5B19A34213D22B0028004345A3
:1052400007D2F21811790029F2D0108803004345E3
:10525000F7D30020E0BCBA46B146A846F0BD0C2406
:10526000D0E71427B846A0444746BFB2BB421CD281
:10527000012308341371A4B21E4B18681300924521
:105280000ED0A418A0422CD3100008309307E1D010
:105290001948FBF757F91B88F318197900291AD018
:1052A0009842F8D163461860EBE7FA270834A4B2B5
:1052B00003193F019BB2B946BB420FD0F7183971B1
:1052C00001213D8078801380117139884945D3D000
:1052D00071184B80D0E761460B60D2E70748FBF7B7
:1052E00031F90748FBF72EF9FCFF00009C1F002056
:1052F00038B900203CB900201C790110D878011081
:10530000EC78011024230022F0B54746CE469046A3
:10531000994603320425944680B5124F124B134C24
:10532000B94441463A682160614603338B43002DFE
:105330000BD016880021002200E003000132196022
:10534000981919002360AA42F7DB0437B94504D045
:105350003A68946853685588E3E7C0BCB946B046DC
:10536000F0BDC046107A0110D8B0002000B900206E
:1053700010B5082810D80B4B8000C458FEF716FF54
:10538000A3681C68002C03D022681A60A30705D10B
:10539000FEF70EFF200010BD0024FBE70248FBF7DC
:1053A000D1F8C046107A01106079011070B50C0078
:1053B00008280ED800290CD0084B8000C5588B0750
:1053C00008D1FEF7F3FEAB681A6822601C60FEF796
:1053D000EFFE70BD0248FBF7B5F8C046107A011029
:1053E000847901100C2040427047C04670B505001A
:1053F0000C00160082B000292AD043680A689A423D
:1054000001D102B070BD3360300001A9019201F0FA
:105410005DFE300001A905F079F901A9300000F026
:1054200033FE392322686A60E95C343B0B40052B6C
:1054300005D0EB69002BE4D028009847E1E7002A6B
:10544000F7D00B07F5D52800291D09F0F1F9F0E791
:105450000148FBF777F8C046347A01107047C04620
:10546000F0B5C64600B504000E001700984682B09D
:1054700000286AD0099B002B67D0002900D174E076
:10548000002F00D16FE04346002B69D03F4B002531
:1054900063610022392320006560A560E5602586F0
:1054A0000021E25428300422FDF70EF8089BE56144
:1054B00063623C232562364D2A78E2540A9B2361BD
:1054C0003368002B3AD13100200001AAFFF78EFF8C
:1054D0000122A168E0683B68994200D0A36043467E
:1054E0001B68984200D0E360002A33D02000099B5B
:1054F0009847002829D1274B3C2698461F683C2313
:10550000E05C00239C46FF2802D163460020A3559F
:10551000002F2CD0BC4236D03B00FF2207E01B6896
:10552000002B24D09C422ED0013A002A0AD0995D4B
:105530008142F4D10130C0B2A055E4E7002000213F
:105540000022C8E71448FAF7FDFF002002B080BC33
:10555000B846F0BD3100200001AAFFF747FFC5E7BC
:105560000E4B984692E70D4F8DE70C4E88E7FE28CC
:1055700007D00130C0B243462870276020001C606D
:10558000E4E70020F7E70648FAF7DCFFE5530010F0
:105590006CCA002020B90020587A011050900110E8
:1055A000447A0110F0B504000D0016001F0083B00E
:1055B00000294ED0002E4AD0002F46D02B68002262
:1055C000002B0CD03368A1688B4200D0A3603B68ED
:1055D000E1688B4230D1002A31D003B0F0BD616860
:1055E00001220029EED06846009101A9019301F043
:1055F0006DFD684601A905F089F801A9684600F02B
:1056000043FD39232A686260E15C343B0B40052B83
:1056100007D1002A05D00B0703D52000211D09F072
:1056200007F9E369002B01D0200098473368A1688F
:1056300001228B42CBD0C9E7E360002ACDD16A4674
:1056400029002000FFF7D2FEC7E7034FB6E7024E5E
:10565000B2E7014DAEE7C0465090011070B5041E90
:1056600016D04368002B17D139220121A35C1942BF
:1056700024D11D4B1A68A2422ED01C4A1368A342A3
:1056800004D126E01A68A24203D01300002BF9D1FE
:1056900070BD22681A60FBE7051D0021280001F09B
:1056A00015FD0021280005F031F80021280000F048
:1056B000EBFC39220121A35C1942DAD0180088439F
:1056C000A0541B070BD4E369002BD2D020009847CD
:1056D000CFE723681360DBE700221A60CDE72000E4
:1056E00008F004FDEFE7C0461CB9002020B90020F7
:1056F000014B18607047C0461CB9002070B5041EED
:1057000015D03925435DDA0711D401221343DBB2EA
:105710004355C269002A01D09047635D05221A40B3
:10572000052A04D16268002A01D01B0700D470BD8D
:105730002000211D09F07CF8F9E7C04670B5041E71
:1057400003D03925435D5A0700D570BD04221343A9
:10575000435505F08FFF0523625D1340052B05D0EF
:10576000236A002BF1D020009847EEE76368002BF6
:10577000F6D01307F4D52000211D09F059F8EFE702
:1057800010B500280AD039220421835C194205D0C3
:105790008B438354036A002B00D0984710BDC0464A
:1057A000021E0ED0084B1868002809D03C2102E0E8
:1057B0000068002804D0435C0133DBB29342F7D188
:1057C00070470020FCE7C04620B90020F8B505006E
:1057D0000026002826D00F270BE0012B24D0002B19
:1057E0002AD12800FFF7E8FB0136F6B2002C19D0C9
:1057F0002500FEF7DBFCAC7B002C1AD0013CE4B2A8
:10580000AC73FEF7D5FC002C0CD12B7B2C683B40F5
:10581000022BE2D1290008200136FFF7C7FDF6B2BE
:10582000002CE5D13000F8BD29000720FFF7BEFDB0
:10583000DAE70348FAF786FE0248FAF783FEC04625
:10584000887A0110A07A011010B5FEF7AFFC002293
:10585000084B1A70FEF7ACFC074B1868002803D100
:1058600007E0C068002804D0436F002BF9D001F096
:105870007BFC10BD6DCA00201CCA0020F0B5C123FE
:105880004F464646D6468046C0B50D00170084B246
:105890005B009A423FD008D81400433BFF3B9C4337
:1058A000012C6AD03C48FAF74DFEA0239B009A4297
:1058B000F8D1E31C0324CA1CA343A2439B189BB248
:1058C0001800103080B293421ED382421CD8FFF7DA
:1058D00089FC061E19D0002303604346C7181337FE
:1058E0002E4B2904A7430D4347608560C3600CE03D
:1058F000FEF75CFC01222A4B1A70FEF759FC002EC1
:1059000002D03000FFF762FF00263000E0BCBA464C
:10591000B146A846F0BD00239846224B00269A4681
:1059200000230327994607E043466D1AADB218607D
:10593000002DEAD0804600240820FFF719FD00283A
:10594000D6D05246E31CBB43D31A1A1C9BB2AB42BF
:1059500000D92A1C4B46041903601334124BBC4374
:1059600091B2446005814281C360002EDCD16D1A82
:10597000ADB20600002DDDD1C7E70720FFF7F8FC28
:10598000061EC2D0002329040D43036043608560D6
:1059900007734373C481B8E7B47A01108000010033
:1059A0006DCA0020EC0500008200010070B5041EE5
:1059B00034D002898A421CD90D008A1A07E0238953
:1059C0006D1A9B1823812468ADB2002C20D0618908
:1059D000A942F4D3237B1B0701D1A9420AD1290490
:1059E00020682943A160002801D0FFF7EFFE0023C3
:1059F000236070BD63682000191B691889B2FFF726
:105A000069FB002807D08442E9D00648FAF79AFDDE
:105A10000548FAF797FD0548FAF794FD0448FAF7A8
:105A200091FDC0461C7B0110E87A0110007B01103B
:105A3000D07A0110030070B5002820D080225202D5
:105A400091421AD2002916D002898CB2A21892B2C1
:105A5000944212D8057B01207F2D0DD95D68691A0B
:105A60001D001035A94207D35960598900206418D8
:105A70005C811A8100E0002070BD0120FCE7014834
:105A8000FAF760FD387B011010B5002818D080238C
:105A90005B02994212D200290ED043898AB29A42FF
:105AA0000CD844689B1AA4464381038961449A1A1E
:105AB00041600281002010BD0020FCE70120FAE7D0
:105AC0000148FAF73FFDC046387B011010B50029A8
:105AD00015DB00282FD0002923D003898AB2D318E0
